{
  "contractName": "Token",
  "abi": [
    {
      "anonymous": false,
      "inputs": [
        {
          "indexed": true,
          "internalType": "address",
          "name": "owner",
          "type": "address"
        },
        {
          "indexed": true,
          "internalType": "address",
          "name": "spender",
          "type": "address"
        },
        {
          "indexed": false,
          "internalType": "uint256",
          "name": "value",
          "type": "uint256"
        }
      ],
      "name": "Approval",
      "type": "event"
    },
    {
      "anonymous": false,
      "inputs": [
        {
          "indexed": false,
          "internalType": "uint8",
          "name": "version",
          "type": "uint8"
        }
      ],
      "name": "Initialized",
      "type": "event"
    },
    {
      "anonymous": false,
      "inputs": [
        {
          "indexed": true,
          "internalType": "address",
          "name": "previousOwner",
          "type": "address"
        },
        {
          "indexed": true,
          "internalType": "address",
          "name": "newOwner",
          "type": "address"
        }
      ],
      "name": "OwnershipTransferred",
      "type": "event"
    },
    {
      "anonymous": false,
      "inputs": [
        {
          "indexed": true,
          "internalType": "address",
          "name": "from",
          "type": "address"
        },
        {
          "indexed": true,
          "internalType": "address",
          "name": "to",
          "type": "address"
        },
        {
          "indexed": false,
          "internalType": "uint256",
          "name": "value",
          "type": "uint256"
        }
      ],
      "name": "Transfer",
      "type": "event"
    },
    {
      "inputs": [
        {
          "internalType": "address",
          "name": "owner",
          "type": "address"
        },
        {
          "internalType": "address",
          "name": "spender",
          "type": "address"
        }
      ],
      "name": "allowance",
      "outputs": [
        {
          "internalType": "uint256",
          "name": "",
          "type": "uint256"
        }
      ],
      "stateMutability": "view",
      "type": "function"
    },
    {
      "inputs": [
        {
          "internalType": "address",
          "name": "spender",
          "type": "address"
        },
        {
          "internalType": "uint256",
          "name": "amount",
          "type": "uint256"
        }
      ],
      "name": "approve",
      "outputs": [
        {
          "internalType": "bool",
          "name": "",
          "type": "bool"
        }
      ],
      "stateMutability": "nonpayable",
      "type": "function"
    },
    {
      "inputs": [
        {
          "internalType": "address",
          "name": "account",
          "type": "address"
        }
      ],
      "name": "balanceOf",
      "outputs": [
        {
          "internalType": "uint256",
          "name": "",
          "type": "uint256"
        }
      ],
      "stateMutability": "view",
      "type": "function"
    },
    {
      "inputs": [],
      "name": "decimals",
      "outputs": [
        {
          "internalType": "uint8",
          "name": "",
          "type": "uint8"
        }
      ],
      "stateMutability": "view",
      "type": "function"
    },
    {
      "inputs": [
        {
          "internalType": "address",
          "name": "spender",
          "type": "address"
        },
        {
          "internalType": "uint256",
          "name": "subtractedValue",
          "type": "uint256"
        }
      ],
      "name": "decreaseAllowance",
      "outputs": [
        {
          "internalType": "bool",
          "name": "",
          "type": "bool"
        }
      ],
      "stateMutability": "nonpayable",
      "type": "function"
    },
    {
      "inputs": [
        {
          "internalType": "address",
          "name": "spender",
          "type": "address"
        },
        {
          "internalType": "uint256",
          "name": "addedValue",
          "type": "uint256"
        }
      ],
      "name": "increaseAllowance",
      "outputs": [
        {
          "internalType": "bool",
          "name": "",
          "type": "bool"
        }
      ],
      "stateMutability": "nonpayable",
      "type": "function"
    },
    {
      "inputs": [],
      "name": "name",
      "outputs": [
        {
          "internalType": "string",
          "name": "",
          "type": "string"
        }
      ],
      "stateMutability": "view",
      "type": "function"
    },
    {
      "inputs": [],
      "name": "owner",
      "outputs": [
        {
          "internalType": "address",
          "name": "",
          "type": "address"
        }
      ],
      "stateMutability": "view",
      "type": "function"
    },
    {
      "inputs": [],
      "name": "renounceOwnership",
      "outputs": [],
      "stateMutability": "nonpayable",
      "type": "function"
    },
    {
      "inputs": [],
      "name": "symbol",
      "outputs": [
        {
          "internalType": "string",
          "name": "",
          "type": "string"
        }
      ],
      "stateMutability": "view",
      "type": "function"
    },
    {
      "inputs": [],
      "name": "totalSupply",
      "outputs": [
        {
          "internalType": "uint256",
          "name": "",
          "type": "uint256"
        }
      ],
      "stateMutability": "view",
      "type": "function"
    },
    {
      "inputs": [
        {
          "internalType": "address",
          "name": "to",
          "type": "address"
        },
        {
          "internalType": "uint256",
          "name": "amount",
          "type": "uint256"
        }
      ],
      "name": "transfer",
      "outputs": [
        {
          "internalType": "bool",
          "name": "",
          "type": "bool"
        }
      ],
      "stateMutability": "nonpayable",
      "type": "function"
    },
    {
      "inputs": [
        {
          "internalType": "address",
          "name": "from",
          "type": "address"
        },
        {
          "internalType": "address",
          "name": "to",
          "type": "address"
        },
        {
          "internalType": "uint256",
          "name": "amount",
          "type": "uint256"
        }
      ],
      "name": "transferFrom",
      "outputs": [
        {
          "internalType": "bool",
          "name": "",
          "type": "bool"
        }
      ],
      "stateMutability": "nonpayable",
      "type": "function"
    },
    {
      "inputs": [
        {
          "internalType": "address",
          "name": "newOwner",
          "type": "address"
        }
      ],
      "name": "transferOwnership",
      "outputs": [],
      "stateMutability": "nonpayable",
      "type": "function"
    },
    {
      "inputs": [
        {
          "internalType": "string",
          "name": "_tokenName",
          "type": "string"
        },
        {
          "internalType": "string",
          "name": "_tokenSymbol",
          "type": "string"
        },
        {
          "internalType": "uint256",
          "name": "_supply",
          "type": "uint256"
        }
      ],
      "name": "initialize",
      "outputs": [],
      "stateMutability": "nonpayable",
      "type": "function"
    },
    {
      "inputs": [],
      "name": "getContractVersion",
      "outputs": [
        {
          "internalType": "uint8",
          "name": "",
          "type": "uint8"
        }
      ],
      "stateMutability": "view",
      "type": "function"
    }
  ],
  "bytecode": "0x608060405234801561001057600080fd5b50612093806100206000396000f3fe608060405234801561001057600080fd5b50600436106101005760003560e01c80638aa1043511610097578063a9059cbb11610066578063a9059cbb146102b3578063b119490e146102e3578063dd62ed3e146102ff578063f2fde38b1461032f57610100565b80638aa10435146102295780638da5cb5b1461024757806395d89b4114610265578063a457c2d71461028357610100565b8063313ce567116100d3578063313ce567146101a157806339509351146101bf57806370a08231146101ef578063715018a61461021f57610100565b806306fdde0314610105578063095ea7b31461012357806318160ddd1461015357806323b872dd14610171575b600080fd5b61010d61034b565b60405161011a91906111d3565b60405180910390f35b61013d6004803603810190610138919061129d565b6103dd565b60405161014a91906112f8565b60405180910390f35b61015b610400565b6040516101689190611322565b60405180910390f35b61018b6004803603810190610186919061133d565b61040a565b60405161019891906112f8565b60405180910390f35b6101a9610439565b6040516101b691906113ac565b60405180910390f35b6101d960048036038101906101d4919061129d565b610442565b6040516101e691906112f8565b60405180910390f35b610209600480360381019061020491906113c7565b610479565b6040516102169190611322565b60405180910390f35b6102276104c2565b005b6102316104d6565b60405161023e91906113ac565b60405180910390f35b61024f6104ed565b60405161025c9190611403565b60405180910390f35b61026d610517565b60405161027a91906111d3565b60405180910390f35b61029d6004803603810190610298919061129d565b6105a9565b6040516102aa91906112f8565b60405180910390f35b6102cd60048036038101906102c8919061129d565b610620565b6040516102da91906112f8565b60405180910390f35b6102fd60048036038101906102f89190611553565b610643565b005b610319600480360381019061031491906115de565b6107c7565b6040516103269190611322565b60405180910390f35b610349600480360381019061034491906113c7565b61084e565b005b60606036805461035a9061164d565b80601f01602080910402602001604051908101604052809291908181526020018280546103869061164d565b80156103d35780601f106103a8576101008083540402835291602001916103d3565b820191906000526020600020905b8154815290600101906020018083116103b657829003601f168201915b5050505050905090565b6000806103e86108d1565b90506103f58185856108d9565b600191505092915050565b6000603554905090565b6000806104156108d1565b9050610422858285610aa2565b61042d858585610b2e565b60019150509392505050565b60006012905090565b60008061044d6108d1565b905061046e81858561045f85896107c7565b61046991906116ad565b6108d9565b600191505092915050565b6000603360008373ffffffffffffffffffffffffffffffffffffffff1673ffffffffffffffffffffffffffffffffffffffff168152602001908152602001600020549050919050565b6104ca610da7565b6104d46000610e25565b565b6000609760009054906101000a900460ff16905090565b6000606560009054906101000a900473ffffffffffffffffffffffffffffffffffffffff16905090565b6060603780546105269061164d565b80601f01602080910402602001604051908101604052809291908181526020018280546105529061164d565b801561059f5780601f106105745761010080835404028352916020019161059f565b820191906000526020600020905b81548152906001019060200180831161058257829003601f168201915b5050505050905090565b6000806105b46108d1565b905060006105c282866107c7565b905083811015610607576040517f08c379a00000000000000000000000000000000000000000000000000000000081526004016105fe90611753565b60405180910390fd5b61061482868684036108d9565b60019250505092915050565b60008061062b6108d1565b9050610638818585610b2e565b600191505092915050565b60008060019054906101000a900460ff161590508080156106745750600160008054906101000a900460ff1660ff16105b806106a1575061068330610eeb565b1580156106a05750600160008054906101000a900460ff1660ff16145b5b6106e0576040517f08c379a00000000000000000000000000000000000000000000000000000000081526004016106d7906117e5565b60405180910390fd5b60016000806101000a81548160ff021916908360ff160217905550801561071d576001600060016101000a81548160ff0219169083151502179055505b6107278484610f0e565b61072f610f81565b61074c33670de0b6b3a7640000846107479190611805565b610fe2565b6001609760006101000a81548160ff021916908360ff16021790555080156107c15760008060016101000a81548160ff0219169083151502179055507f7f26b83ff96e1f2b6a682f133852f6798a09c465da95921460cefb384740249860016040516107b8919061188c565b60405180910390a15b50505050565b6000603460008473ffffffffffffffffffffffffffffffffffffffff1673ffffffffffffffffffffffffffffffffffffffff16815260200190815260200160002060008373ffffffffffffffffffffffffffffffffffffffff1673ffffffffffffffffffffffffffffffffffffffff16815260200190815260200160002054905092915050565b610856610da7565b600073ffffffffffffffffffffffffffffffffffffffff168173ffffffffffffffffffffffffffffffffffffffff16036108c5576040517f08c379a00000000000000000000000000000000000000000000000000000000081526004016108bc90611919565b60405180910390fd5b6108ce81610e25565b50565b600033905090565b600073ffffffffffffffffffffffffffffffffffffffff168373ffffffffffffffffffffffffffffffffffffffff1603610948576040517f08c379a000000000000000000000000000000000000000000000000000000000815260040161093f906119ab565b60405180910390fd5b600073ffffffffffffffffffffffffffffffffffffffff168273ffffffffffffffffffffffffffffffffffffffff16036109b7576040517f08c379a00000000000000000000000000000000000000000000000000000000081526004016109ae90611a3d565b60405180910390fd5b80603460008573ffffffffffffffffffffffffffffffffffffffff1673ffffffffffffffffffffffffffffffffffffffff16815260200190815260200160002060008473ffffffffffffffffffffffffffffffffffffffff1673ffffffffffffffffffffffffffffffffffffffff168152602001908152602001600020819055508173ffffffffffffffffffffffffffffffffffffffff168373ffffffffffffffffffffffffffffffffffffffff167f8c5be1e5ebec7d5bd14f71427d1e84f3dd0314c0f7b2291e5b200ac8c7c3b92583604051610a959190611322565b60405180910390a3505050565b6000610aae84846107c7565b90507fffffffffffffffffffffffffffffffffffffffffffffffffffffffffffffffff8114610b285781811015610b1a576040517f08c379a0000000000000000000000000000000000000000000000000000000008152600401610b1190611aa9565b60405180910390fd5b610b2784848484036108d9565b5b50505050565b600073ffffffffffffffffffffffffffffffffffffffff168373ffffffffffffffffffffffffffffffffffffffff1603610b9d576040517f08c379a0000000000000000000000000000000000000000000000000000000008152600401610b9490611b3b565b60405180910390fd5b600073ffffffffffffffffffffffffffffffffffffffff168273ffffffffffffffffffffffffffffffffffffffff1603610c0c576040517f08c379a0000000000000000000000000000000000000000000000000000000008152600401610c0390611bcd565b60405180910390fd5b610c17838383611139565b6000603360008573ffffffffffffffffffffffffffffffffffffffff1673ffffffffffffffffffffffffffffffffffffffff16815260200190815260200160002054905081811015610c9e576040517f08c379a0000000000000000000000000000000000000000000000000000000008152600401610c9590611c5f565b60405180910390fd5b818103603360008673ffffffffffffffffffffffffffffffffffffffff1673ffffffffffffffffffffffffffffffffffffffff1681526020019081526020016000208190555081603360008573ffffffffffffffffffffffffffffffffffffffff1673ffffffffffffffffffffffffffffffffffffffff168152602001908152602001600020600082825401925050819055508273ffffffffffffffffffffffffffffffffffffffff168473ffffffffffffffffffffffffffffffffffffffff167fddf252ad1be2c89b69c2b068fc378daa952ba7f163c4a11628f55a4df523b3ef84604051610d8e9190611322565b60405180910390a3610da184848461113e565b50505050565b610daf6108d1565b73ffffffffffffffffffffffffffffffffffffffff16610dcd6104ed565b73ffffffffffffffffffffffffffffffffffffffff1614610e23576040517f08c379a0000000000000000000000000000000000000000000000000000000008152600401610e1a90611ccb565b60405180910390fd5b565b6000606560009054906101000a900473ffffffffffffffffffffffffffffffffffffffff16905081606560006101000a81548173ffffffffffffffffffffffffffffffffffffffff021916908373ffffffffffffffffffffffffffffffffffffffff1602179055508173ffffffffffffffffffffffffffffffffffffffff168173ffffffffffffffffffffffffffffffffffffffff167f8be0079c531659141344cd1fd0a4f28419497f9722a3daafe3b4186f6b6457e060405160405180910390a35050565b6000808273ffffffffffffffffffffffffffffffffffffffff163b119050919050565b600060019054906101000a900460ff16610f5d576040517f08c379a0000000000000000000000000000000000000000000000000000000008152600401610f5490611d5d565b60405180910390fd5b8160369081610f6c9190611f1f565b508060379081610f7c9190611f1f565b505050565b600060019054906101000a900460ff16610fd0576040517f08c379a0000000000000000000000000000000000000000000000000000000008152600401610fc790611d5d565b60405180910390fd5b610fe0610fdb6108d1565b610e25565b565b600073ffffffffffffffffffffffffffffffffffffffff168273ffffffffffffffffffffffffffffffffffffffff1603611051576040517f08c379a00000000000000000000000000000000000000000000000000000000081526004016110489061203d565b60405180910390fd5b61105d60008383611139565b806035600082825461106f91906116ad565b9250508190555080603360008473ffffffffffffffffffffffffffffffffffffffff1673ffffffffffffffffffffffffffffffffffffffff168152602001908152602001600020600082825401925050819055508173ffffffffffffffffffffffffffffffffffffffff16600073ffffffffffffffffffffffffffffffffffffffff167fddf252ad1be2c89b69c2b068fc378daa952ba7f163c4a11628f55a4df523b3ef836040516111219190611322565b60405180910390a36111356000838361113e565b5050565b505050565b505050565b600081519050919050565b600082825260208201905092915050565b60005b8381101561117d578082015181840152602081019050611162565b60008484015250505050565b6000601f19601f8301169050919050565b60006111a582611143565b6111af818561114e565b93506111bf81856020860161115f565b6111c881611189565b840191505092915050565b600060208201905081810360008301526111ed818461119a565b905092915050565b6000604051905090565b600080fd5b600080fd5b600073ffffffffffffffffffffffffffffffffffffffff82169050919050565b600061123482611209565b9050919050565b61124481611229565b811461124f57600080fd5b50565b6000813590506112618161123b565b92915050565b6000819050919050565b61127a81611267565b811461128557600080fd5b50565b60008135905061129781611271565b92915050565b600080604083850312156112b4576112b36111ff565b5b60006112c285828601611252565b92505060206112d385828601611288565b9150509250929050565b60008115159050919050565b6112f2816112dd565b82525050565b600060208201905061130d60008301846112e9565b92915050565b61131c81611267565b82525050565b60006020820190506113376000830184611313565b92915050565b600080600060608486031215611356576113556111ff565b5b600061136486828701611252565b935050602061137586828701611252565b925050604061138686828701611288565b9150509250925092565b600060ff82169050919050565b6113a681611390565b82525050565b60006020820190506113c1600083018461139d565b92915050565b6000602082840312156113dd576113dc6111ff565b5b60006113eb84828501611252565b91505092915050565b6113fd81611229565b82525050565b600060208201905061141860008301846113f4565b92915050565b600080fd5b600080fd5b7f4e487b7100000000000000000000000000000000000000000000000000000000600052604160045260246000fd5b61146082611189565b810181811067ffffffffffffffff8211171561147f5761147e611428565b5b80604052505050565b60006114926111f5565b905061149e8282611457565b919050565b600067ffffffffffffffff8211156114be576114bd611428565b5b6114c782611189565b9050602081019050919050565b82818337600083830152505050565b60006114f66114f1846114a3565b611488565b90508281526020810184848401111561151257611511611423565b5b61151d8482856114d4565b509392505050565b600082601f83011261153a5761153961141e565b5b813561154a8482602086016114e3565b91505092915050565b60008060006060848603121561156c5761156b6111ff565b5b600084013567ffffffffffffffff81111561158a57611589611204565b5b61159686828701611525565b935050602084013567ffffffffffffffff8111156115b7576115b6611204565b5b6115c386828701611525565b92505060406115d486828701611288565b9150509250925092565b600080604083850312156115f5576115f46111ff565b5b600061160385828601611252565b925050602061161485828601611252565b9150509250929050565b7f4e487b7100000000000000000000000000000000000000000000000000000000600052602260045260246000fd5b6000600282049050600182168061166557607f821691505b6020821081036116785761167761161e565b5b50919050565b7f4e487b7100000000000000000000000000000000000000000000000000000000600052601160045260246000fd5b60006116b882611267565b91506116c383611267565b92508282019050808211156116db576116da61167e565b5b92915050565b7f45524332303a2064656372656173656420616c6c6f77616e63652062656c6f7760008201527f207a65726f000000000000000000000000000000000000000000000000000000602082015250565b600061173d60258361114e565b9150611748826116e1565b604082019050919050565b6000602082019050818103600083015261176c81611730565b9050919050565b7f496e697469616c697a61626c653a20636f6e747261637420697320616c72656160008201527f647920696e697469616c697a6564000000000000000000000000000000000000602082015250565b60006117cf602e8361114e565b91506117da82611773565b604082019050919050565b600060208201905081810360008301526117fe816117c2565b9050919050565b600061181082611267565b915061181b83611267565b925082820261182981611267565b915082820484148315176118405761183f61167e565b5b5092915050565b6000819050919050565b6000819050919050565b600061187661187161186c84611847565b611851565b611390565b9050919050565b6118868161185b565b82525050565b60006020820190506118a1600083018461187d565b92915050565b7f4f776e61626c653a206e6577206f776e657220697320746865207a65726f206160008201527f6464726573730000000000000000000000000000000000000000000000000000602082015250565b600061190360268361114e565b915061190e826118a7565b604082019050919050565b60006020820190508181036000830152611932816118f6565b9050919050565b7f45524332303a20617070726f76652066726f6d20746865207a65726f2061646460008201527f7265737300000000000000000000000000000000000000000000000000000000602082015250565b600061199560248361114e565b91506119a082611939565b604082019050919050565b600060208201905081810360008301526119c481611988565b9050919050565b7f45524332303a20617070726f766520746f20746865207a65726f20616464726560008201527f7373000000000000000000000000000000000000000000000000000000000000602082015250565b6000611a2760228361114e565b9150611a32826119cb565b604082019050919050565b60006020820190508181036000830152611a5681611a1a565b9050919050565b7f45524332303a20696e73756666696369656e7420616c6c6f77616e6365000000600082015250565b6000611a93601d8361114e565b9150611a9e82611a5d565b602082019050919050565b60006020820190508181036000830152611ac281611a86565b9050919050565b7f45524332303a207472616e736665722066726f6d20746865207a65726f20616460008201527f6472657373000000000000000000000000000000000000000000000000000000602082015250565b6000611b2560258361114e565b9150611b3082611ac9565b604082019050919050565b60006020820190508181036000830152611b5481611b18565b9050919050565b7f45524332303a207472616e7366657220746f20746865207a65726f206164647260008201527f6573730000000000000000000000000000000000000000000000000000000000602082015250565b6000611bb760238361114e565b9150611bc282611b5b565b604082019050919050565b60006020820190508181036000830152611be681611baa565b9050919050565b7f45524332303a207472616e7366657220616d6f756e742065786365656473206260008201527f616c616e63650000000000000000000000000000000000000000000000000000602082015250565b6000611c4960268361114e565b9150611c5482611bed565b604082019050919050565b60006020820190508181036000830152611c7881611c3c565b9050919050565b7f4f776e61626c653a2063616c6c6572206973206e6f7420746865206f776e6572600082015250565b6000611cb560208361114e565b9150611cc082611c7f565b602082019050919050565b60006020820190508181036000830152611ce481611ca8565b9050919050565b7f496e697469616c697a61626c653a20636f6e7472616374206973206e6f74206960008201527f6e697469616c697a696e67000000000000000000000000000000000000000000602082015250565b6000611d47602b8361114e565b9150611d5282611ceb565b604082019050919050565b60006020820190508181036000830152611d7681611d3a565b9050919050565b60008190508160005260206000209050919050565b60006020601f8301049050919050565b600082821b905092915050565b600060088302611ddf7fffffffffffffffffffffffffffffffffffffffffffffffffffffffffffffffff82611da2565b611de98683611da2565b95508019841693508086168417925050509392505050565b6000611e1c611e17611e1284611267565b611851565b611267565b9050919050565b6000819050919050565b611e3683611e01565b611e4a611e4282611e23565b848454611daf565b825550505050565b600090565b611e5f611e52565b611e6a818484611e2d565b505050565b5b81811015611e8e57611e83600082611e57565b600181019050611e70565b5050565b601f821115611ed357611ea481611d7d565b611ead84611d92565b81016020851015611ebc578190505b611ed0611ec885611d92565b830182611e6f565b50505b505050565b600082821c905092915050565b6000611ef660001984600802611ed8565b1980831691505092915050565b6000611f0f8383611ee5565b9150826002028217905092915050565b611f2882611143565b67ffffffffffffffff811115611f4157611f40611428565b5b611f4b825461164d565b611f56828285611e92565b600060209050601f831160018114611f895760008415611f77578287015190505b611f818582611f03565b865550611fe9565b601f198416611f9786611d7d565b60005b82811015611fbf57848901518255600182019150602085019450602081019050611f9a565b86831015611fdc5784890151611fd8601f891682611ee5565b8355505b6001600288020188555050505b505050505050565b7f45524332303a206d696e7420746f20746865207a65726f206164647265737300600082015250565b6000612027601f8361114e565b915061203282611ff1565b602082019050919050565b600060208201905081810360008301526120568161201a565b905091905056fea2646970667358221220e7cacb8c6396e4b2bac6cfe094c72642acc69ecdb2b12989cdf576b625086e3864736f6c63430008110033",
  "immutableReferences": {},
  "source": "// SPDX-License-Identifier: MIT\r\npragma solidity 0.8.17;\r\n\r\n// import \"@openzeppelin/contracts/token/ERC20/ERC20.sol\";\r\nimport \"@openzeppelin/contracts-upgradeable/token/ERC20/ERC20Upgradeable.sol\";\r\n// import \"@openzeppelin/contracts/access/Ownable.sol\";\r\nimport \"@openzeppelin/contracts-upgradeable/access/OwnableUpgradeable.sol\";\r\n// import \"./TokenStorage.sol\";\r\n\r\ncontract Token is ERC20Upgradeable, OwnableUpgradeable {\r\n    uint8 private VERSION;\r\n\r\n    function initialize(string memory _tokenName,\r\n    string memory _tokenSymbol,\r\n    uint256 _supply) public initializer {\r\n        __ERC20_init_unchained(_tokenName, _tokenSymbol);\r\n        __Ownable_init_unchained();\r\n\r\n        _mint(msg.sender, _supply*(1e18));\r\n        VERSION = 1;\r\n    }\r\n\r\n    function getContractVersion() external view returns(uint8) {\r\n        return VERSION;\r\n    }    \r\n}\r\n",
  "sourcePath": "C:\\Users\\iorim\\VSCprojects\\MasterZ_DEV_Blockchain_Homeworks\\TokenUpgradeable\\contracts\\Token.sol",
  "compiler": {
    "name": "solc",
    "version": "0.8.17+commit.8df45f5f.Emscripten.clang"
  },
  "schemaVersion": "3.4.16",
  "updatedAt": "2024-08-19T15:34:18.055Z",
  "networkType": "ethereum",
  "devdoc": {
    "kind": "dev",
    "methods": {
      "allowance(address,address)": {
        "details": "See {IERC20-allowance}."
      },
      "approve(address,uint256)": {
        "details": "See {IERC20-approve}. NOTE: If `amount` is the maximum `uint256`, the allowance is not updated on `transferFrom`. This is semantically equivalent to an infinite approval. Requirements: - `spender` cannot be the zero address."
      },
      "balanceOf(address)": {
        "details": "See {IERC20-balanceOf}."
      },
      "decimals()": {
        "details": "Returns the number of decimals used to get its user representation. For example, if `decimals` equals `2`, a balance of `505` tokens should be displayed to a user as `5.05` (`505 / 10 ** 2`). Tokens usually opt for a value of 18, imitating the relationship between Ether and Wei. This is the default value returned by this function, unless it's overridden. NOTE: This information is only used for _display_ purposes: it in no way affects any of the arithmetic of the contract, including {IERC20-balanceOf} and {IERC20-transfer}."
      },
      "decreaseAllowance(address,uint256)": {
        "details": "Atomically decreases the allowance granted to `spender` by the caller. This is an alternative to {approve} that can be used as a mitigation for problems described in {IERC20-approve}. Emits an {Approval} event indicating the updated allowance. Requirements: - `spender` cannot be the zero address. - `spender` must have allowance for the caller of at least `subtractedValue`."
      },
      "increaseAllowance(address,uint256)": {
        "details": "Atomically increases the allowance granted to `spender` by the caller. This is an alternative to {approve} that can be used as a mitigation for problems described in {IERC20-approve}. Emits an {Approval} event indicating the updated allowance. Requirements: - `spender` cannot be the zero address."
      },
      "name()": {
        "details": "Returns the name of the token."
      },
      "owner()": {
        "details": "Returns the address of the current owner."
      },
      "renounceOwnership()": {
        "details": "Leaves the contract without owner. It will not be possible to call `onlyOwner` functions. Can only be called by the current owner. NOTE: Renouncing ownership will leave the contract without an owner, thereby disabling any functionality that is only available to the owner."
      },
      "symbol()": {
        "details": "Returns the symbol of the token, usually a shorter version of the name."
      },
      "totalSupply()": {
        "details": "See {IERC20-totalSupply}."
      },
      "transfer(address,uint256)": {
        "details": "See {IERC20-transfer}. Requirements: - `to` cannot be the zero address. - the caller must have a balance of at least `amount`."
      },
      "transferFrom(address,address,uint256)": {
        "details": "See {IERC20-transferFrom}. Emits an {Approval} event indicating the updated allowance. This is not required by the EIP. See the note at the beginning of {ERC20}. NOTE: Does not update the allowance if the current allowance is the maximum `uint256`. Requirements: - `from` and `to` cannot be the zero address. - `from` must have a balance of at least `amount`. - the caller must have allowance for ``from``'s tokens of at least `amount`."
      },
      "transferOwnership(address)": {
        "details": "Transfers ownership of the contract to a new account (`newOwner`). Can only be called by the current owner."
      }
    },
    "version": 1
  },
  "userdoc": {
    "kind": "user",
    "methods": {},
    "version": 1
  }
}