{
  "contractName": "Token2Storage",
  "abi": [
    {
      "inputs": [],
      "name": "VERSION",
      "outputs": [
        {
          "internalType": "uint8",
          "name": "",
          "type": "uint8"
        }
      ],
      "stateMutability": "view",
      "type": "function"
    },
    {
      "inputs": [],
      "name": "maxSupply",
      "outputs": [
        {
          "internalType": "uint256",
          "name": "",
          "type": "uint256"
        }
      ],
      "stateMutability": "view",
      "type": "function"
    }
  ],
  "bytecode": "0x608060405234801561001057600080fd5b5061011b806100206000396000f3fe6080604052348015600f57600080fd5b506004361060325760003560e01c8063d5abeb01146037578063ffa1ad74146051575b600080fd5b603d606b565b604051604891906099565b60405180910390f35b60576071565b6040516062919060cc565b60405180910390f35b60015481565b60008054906101000a900460ff1681565b6000819050919050565b6093816082565b82525050565b600060208201905060ac6000830184608c565b92915050565b600060ff82169050919050565b60c68160b2565b82525050565b600060208201905060df600083018460bf565b9291505056fea2646970667358221220bcc436eed472e96f6810f983c2b2fa36ebcb6c8f229b7607af6ee0543e15307664736f6c63430008110033",
  "immutableReferences": {},
  "source": "// SPDX-License-Identifier: MIT\r\npragma solidity 0.8.17;\r\n\r\ncontract Token2Storage {\r\n    uint8 public VERSION;\r\n    uint256 public maxSupply;\r\n}",
  "sourcePath": "C:\\Users\\iorim\\VSCprojects\\MasterZ_DEV_Blockchain_Homeworks\\TokenUpgradeable\\contracts\\Token2Storage.sol",
  "compiler": {
    "name": "solc",
    "version": "0.8.17+commit.8df45f5f.Emscripten.clang"
  },
  "schemaVersion": "3.4.16",
  "updatedAt": "2024-09-02T05:54:07.438Z",
  "devdoc": {
    "kind": "dev",
    "methods": {},
    "version": 1
  },
  "userdoc": {
    "kind": "user",
    "methods": {},
    "version": 1
  }
}