{
  "contractName": "Token2",
  "abi": [
    {
      "anonymous": false,
      "inputs": [
        {
          "indexed": true,
          "internalType": "address",
          "name": "owner",
          "type": "address"
        },
        {
          "indexed": true,
          "internalType": "address",
          "name": "spender",
          "type": "address"
        },
        {
          "indexed": false,
          "internalType": "uint256",
          "name": "value",
          "type": "uint256"
        }
      ],
      "name": "Approval",
      "type": "event"
    },
    {
      "anonymous": false,
      "inputs": [
        {
          "indexed": false,
          "internalType": "uint8",
          "name": "version",
          "type": "uint8"
        }
      ],
      "name": "Initialized",
      "type": "event"
    },
    {
      "anonymous": false,
      "inputs": [
        {
          "indexed": true,
          "internalType": "address",
          "name": "previousOwner",
          "type": "address"
        },
        {
          "indexed": true,
          "internalType": "address",
          "name": "newOwner",
          "type": "address"
        }
      ],
      "name": "OwnershipTransferred",
      "type": "event"
    },
    {
      "anonymous": false,
      "inputs": [
        {
          "indexed": true,
          "internalType": "address",
          "name": "from",
          "type": "address"
        },
        {
          "indexed": true,
          "internalType": "address",
          "name": "to",
          "type": "address"
        },
        {
          "indexed": false,
          "internalType": "uint256",
          "name": "value",
          "type": "uint256"
        }
      ],
      "name": "Transfer",
      "type": "event"
    },
    {
      "inputs": [],
      "name": "VERSION",
      "outputs": [
        {
          "internalType": "uint8",
          "name": "",
          "type": "uint8"
        }
      ],
      "stateMutability": "view",
      "type": "function",
      "constant": true
    },
    {
      "inputs": [
        {
          "internalType": "address",
          "name": "owner",
          "type": "address"
        },
        {
          "internalType": "address",
          "name": "spender",
          "type": "address"
        }
      ],
      "name": "allowance",
      "outputs": [
        {
          "internalType": "uint256",
          "name": "",
          "type": "uint256"
        }
      ],
      "stateMutability": "view",
      "type": "function",
      "constant": true
    },
    {
      "inputs": [
        {
          "internalType": "address",
          "name": "spender",
          "type": "address"
        },
        {
          "internalType": "uint256",
          "name": "amount",
          "type": "uint256"
        }
      ],
      "name": "approve",
      "outputs": [
        {
          "internalType": "bool",
          "name": "",
          "type": "bool"
        }
      ],
      "stateMutability": "nonpayable",
      "type": "function"
    },
    {
      "inputs": [
        {
          "internalType": "address",
          "name": "account",
          "type": "address"
        }
      ],
      "name": "balanceOf",
      "outputs": [
        {
          "internalType": "uint256",
          "name": "",
          "type": "uint256"
        }
      ],
      "stateMutability": "view",
      "type": "function",
      "constant": true
    },
    {
      "inputs": [],
      "name": "decimals",
      "outputs": [
        {
          "internalType": "uint8",
          "name": "",
          "type": "uint8"
        }
      ],
      "stateMutability": "view",
      "type": "function",
      "constant": true
    },
    {
      "inputs": [
        {
          "internalType": "address",
          "name": "spender",
          "type": "address"
        },
        {
          "internalType": "uint256",
          "name": "subtractedValue",
          "type": "uint256"
        }
      ],
      "name": "decreaseAllowance",
      "outputs": [
        {
          "internalType": "bool",
          "name": "",
          "type": "bool"
        }
      ],
      "stateMutability": "nonpayable",
      "type": "function"
    },
    {
      "inputs": [
        {
          "internalType": "address",
          "name": "spender",
          "type": "address"
        },
        {
          "internalType": "uint256",
          "name": "addedValue",
          "type": "uint256"
        }
      ],
      "name": "increaseAllowance",
      "outputs": [
        {
          "internalType": "bool",
          "name": "",
          "type": "bool"
        }
      ],
      "stateMutability": "nonpayable",
      "type": "function"
    },
    {
      "inputs": [],
      "name": "maxSupply",
      "outputs": [
        {
          "internalType": "uint256",
          "name": "",
          "type": "uint256"
        }
      ],
      "stateMutability": "view",
      "type": "function",
      "constant": true
    },
    {
      "inputs": [],
      "name": "name",
      "outputs": [
        {
          "internalType": "string",
          "name": "",
          "type": "string"
        }
      ],
      "stateMutability": "view",
      "type": "function",
      "constant": true
    },
    {
      "inputs": [],
      "name": "owner",
      "outputs": [
        {
          "internalType": "address",
          "name": "",
          "type": "address"
        }
      ],
      "stateMutability": "view",
      "type": "function",
      "constant": true
    },
    {
      "inputs": [],
      "name": "renounceOwnership",
      "outputs": [],
      "stateMutability": "nonpayable",
      "type": "function"
    },
    {
      "inputs": [],
      "name": "symbol",
      "outputs": [
        {
          "internalType": "string",
          "name": "",
          "type": "string"
        }
      ],
      "stateMutability": "view",
      "type": "function",
      "constant": true
    },
    {
      "inputs": [],
      "name": "totalSupply",
      "outputs": [
        {
          "internalType": "uint256",
          "name": "",
          "type": "uint256"
        }
      ],
      "stateMutability": "view",
      "type": "function",
      "constant": true
    },
    {
      "inputs": [
        {
          "internalType": "address",
          "name": "to",
          "type": "address"
        },
        {
          "internalType": "uint256",
          "name": "amount",
          "type": "uint256"
        }
      ],
      "name": "transfer",
      "outputs": [
        {
          "internalType": "bool",
          "name": "",
          "type": "bool"
        }
      ],
      "stateMutability": "nonpayable",
      "type": "function"
    },
    {
      "inputs": [
        {
          "internalType": "address",
          "name": "from",
          "type": "address"
        },
        {
          "internalType": "address",
          "name": "to",
          "type": "address"
        },
        {
          "internalType": "uint256",
          "name": "amount",
          "type": "uint256"
        }
      ],
      "name": "transferFrom",
      "outputs": [
        {
          "internalType": "bool",
          "name": "",
          "type": "bool"
        }
      ],
      "stateMutability": "nonpayable",
      "type": "function"
    },
    {
      "inputs": [
        {
          "internalType": "address",
          "name": "newOwner",
          "type": "address"
        }
      ],
      "name": "transferOwnership",
      "outputs": [],
      "stateMutability": "nonpayable",
      "type": "function"
    },
    {
      "inputs": [
        {
          "internalType": "string",
          "name": "_tokenName",
          "type": "string"
        },
        {
          "internalType": "string",
          "name": "_tokenSymbol",
          "type": "string"
        },
        {
          "internalType": "uint256",
          "name": "_supply",
          "type": "uint256"
        }
      ],
      "name": "initialize",
      "outputs": [],
      "stateMutability": "nonpayable",
      "type": "function"
    },
    {
      "inputs": [
        {
          "internalType": "uint256",
          "name": "_max",
          "type": "uint256"
        }
      ],
      "name": "setMuxSupply",
      "outputs": [],
      "stateMutability": "nonpayable",
      "type": "function"
    },
    {
      "inputs": [
        {
          "internalType": "uint8",
          "name": "_ver",
          "type": "uint8"
        }
      ],
      "name": "setVersion",
      "outputs": [],
      "stateMutability": "nonpayable",
      "type": "function"
    }
  ],
  "bytecode": "0x608060405234801561001057600080fd5b506122a8806100206000396000f3fe608060405234801561001057600080fd5b50600436106101215760003560e01c80638da5cb5b116100ad578063d5abeb0111610071578063d5abeb011461031e578063dd62ed3e1461033c578063f2fde38b1461036c578063f78203a714610388578063ffa1ad74146103a457610121565b80638da5cb5b1461026657806395d89b4114610284578063a457c2d7146102a2578063a9059cbb146102d2578063b119490e1461030257610121565b806323b872dd116100f457806323b872dd146101ae578063313ce567146101de57806339509351146101fc57806370a082311461022c578063715018a61461025c57610121565b806306fdde0314610126578063095ea7b31461014457806313c32d6e1461017457806318160ddd14610190575b600080fd5b61012e6103c2565b60405161013b91906112d0565b60405180910390f35b61015e6004803603810190610159919061139a565b610454565b60405161016b91906113f5565b60405180910390f35b61018e60048036038101906101899190611410565b610477565b005b6101986104f9565b6040516101a5919061144c565b60405180910390f35b6101c860048036038101906101c39190611467565b610503565b6040516101d591906113f5565b60405180910390f35b6101e6610532565b6040516101f391906114d6565b60405180910390f35b6102166004803603810190610211919061139a565b61053b565b60405161022391906113f5565b60405180910390f35b610246600480360381019061024191906114f1565b610572565b604051610253919061144c565b60405180910390f35b6102646105bb565b005b61026e6105cf565b60405161027b919061152d565b60405180910390f35b61028c6105f9565b60405161029991906112d0565b60405180910390f35b6102bc60048036038101906102b7919061139a565b61068b565b6040516102c991906113f5565b60405180910390f35b6102ec60048036038101906102e7919061139a565b610702565b6040516102f991906113f5565b60405180910390f35b61031c6004803603810190610317919061167d565b610725565b005b61032661088d565b604051610333919061144c565b60405180910390f35b61035660048036038101906103519190611708565b610893565b604051610363919061144c565b60405180910390f35b610386600480360381019061038191906114f1565b61091a565b005b6103a2600480360381019061039d9190611774565b61099d565b005b6103ac6109bb565b6040516103b991906114d6565b60405180910390f35b6060603680546103d1906117d0565b80601f01602080910402602001604051908101604052809291908181526020018280546103fd906117d0565b801561044a5780601f1061041f5761010080835404028352916020019161044a565b820191906000526020600020905b81548152906001019060200180831161042d57829003601f168201915b5050505050905090565b60008061045f6109ce565b905061046c8185856109d6565b600191505092915050565b61047f610b9f565b6104876104f9565b670de0b6b3a76400008261049b9190611830565b10156104dc576040517f08c379a00000000000000000000000000000000000000000000000000000000081526004016104d3906118e4565b60405180910390fd5b670de0b6b3a7640000816104f09190611830565b60988190555050565b6000603554905090565b60008061050e6109ce565b905061051b858285610c1d565b610526858585610ca9565b60019150509392505050565b60006012905090565b6000806105466109ce565b90506105678185856105588589610893565b6105629190611904565b6109d6565b600191505092915050565b6000603360008373ffffffffffffffffffffffffffffffffffffffff1673ffffffffffffffffffffffffffffffffffffffff168152602001908152602001600020549050919050565b6105c3610b9f565b6105cd6000610f22565b565b6000606560009054906101000a900473ffffffffffffffffffffffffffffffffffffffff16905090565b606060378054610608906117d0565b80601f0160208091040260200160405190810160405280929190818152602001828054610634906117d0565b80156106815780601f1061065657610100808354040283529160200191610681565b820191906000526020600020905b81548152906001019060200180831161066457829003601f168201915b5050505050905090565b6000806106966109ce565b905060006106a48286610893565b9050838110156106e9576040517f08c379a00000000000000000000000000000000000000000000000000000000081526004016106e0906119aa565b60405180910390fd5b6106f682868684036109d6565b60019250505092915050565b60008061070d6109ce565b905061071a818585610ca9565b600191505092915050565b60008060019054906101000a900460ff161590508080156107565750600160008054906101000a900460ff1660ff16105b80610783575061076530610fe8565b1580156107825750600160008054906101000a900460ff1660ff16145b5b6107c2576040517f08c379a00000000000000000000000000000000000000000000000000000000081526004016107b990611a3c565b60405180910390fd5b60016000806101000a81548160ff021916908360ff16021790555080156107ff576001600060016101000a81548160ff0219169083151502179055505b610809848461100b565b61081161107e565b61082e33670de0b6b3a7640000846108299190611830565b6110df565b80156108875760008060016101000a81548160ff0219169083151502179055507f7f26b83ff96e1f2b6a682f133852f6798a09c465da95921460cefb3847402498600160405161087e9190611aa1565b60405180910390a15b50505050565b60985481565b6000603460008473ffffffffffffffffffffffffffffffffffffffff1673ffffffffffffffffffffffffffffffffffffffff16815260200190815260200160002060008373ffffffffffffffffffffffffffffffffffffffff1673ffffffffffffffffffffffffffffffffffffffff16815260200190815260200160002054905092915050565b610922610b9f565b600073ffffffffffffffffffffffffffffffffffffffff168173ffffffffffffffffffffffffffffffffffffffff1603610991576040517f08c379a000000000000000000000000000000000000000000000000000000000815260040161098890611b2e565b60405180910390fd5b61099a81610f22565b50565b80609760006101000a81548160ff021916908360ff16021790555050565b609760009054906101000a900460ff1681565b600033905090565b600073ffffffffffffffffffffffffffffffffffffffff168373ffffffffffffffffffffffffffffffffffffffff1603610a45576040517f08c379a0000000000000000000000000000000000000000000000000000000008152600401610a3c90611bc0565b60405180910390fd5b600073ffffffffffffffffffffffffffffffffffffffff168273ffffffffffffffffffffffffffffffffffffffff1603610ab4576040517f08c379a0000000000000000000000000000000000000000000000000000000008152600401610aab90611c52565b60405180910390fd5b80603460008573ffffffffffffffffffffffffffffffffffffffff1673ffffffffffffffffffffffffffffffffffffffff16815260200190815260200160002060008473ffffffffffffffffffffffffffffffffffffffff1673ffffffffffffffffffffffffffffffffffffffff168152602001908152602001600020819055508173ffffffffffffffffffffffffffffffffffffffff168373ffffffffffffffffffffffffffffffffffffffff167f8c5be1e5ebec7d5bd14f71427d1e84f3dd0314c0f7b2291e5b200ac8c7c3b92583604051610b92919061144c565b60405180910390a3505050565b610ba76109ce565b73ffffffffffffffffffffffffffffffffffffffff16610bc56105cf565b73ffffffffffffffffffffffffffffffffffffffff1614610c1b576040517f08c379a0000000000000000000000000000000000000000000000000000000008152600401610c1290611cbe565b60405180910390fd5b565b6000610c298484610893565b90507fffffffffffffffffffffffffffffffffffffffffffffffffffffffffffffffff8114610ca35781811015610c95576040517f08c379a0000000000000000000000000000000000000000000000000000000008152600401610c8c90611d2a565b60405180910390fd5b610ca284848484036109d6565b5b50505050565b600073ffffffffffffffffffffffffffffffffffffffff168373ffffffffffffffffffffffffffffffffffffffff1603610d18576040517f08c379a0000000000000000000000000000000000000000000000000000000008152600401610d0f90611dbc565b60405180910390fd5b600073ffffffffffffffffffffffffffffffffffffffff168273ffffffffffffffffffffffffffffffffffffffff1603610d87576040517f08c379a0000000000000000000000000000000000000000000000000000000008152600401610d7e90611e4e565b60405180910390fd5b610d92838383611236565b6000603360008573ffffffffffffffffffffffffffffffffffffffff1673ffffffffffffffffffffffffffffffffffffffff16815260200190815260200160002054905081811015610e19576040517f08c379a0000000000000000000000000000000000000000000000000000000008152600401610e1090611ee0565b60405180910390fd5b818103603360008673ffffffffffffffffffffffffffffffffffffffff1673ffffffffffffffffffffffffffffffffffffffff1681526020019081526020016000208190555081603360008573ffffffffffffffffffffffffffffffffffffffff1673ffffffffffffffffffffffffffffffffffffffff168152602001908152602001600020600082825401925050819055508273ffffffffffffffffffffffffffffffffffffffff168473ffffffffffffffffffffffffffffffffffffffff167fddf252ad1be2c89b69c2b068fc378daa952ba7f163c4a11628f55a4df523b3ef84604051610f09919061144c565b60405180910390a3610f1c84848461123b565b50505050565b6000606560009054906101000a900473ffffffffffffffffffffffffffffffffffffffff16905081606560006101000a81548173ffffffffffffffffffffffffffffffffffffffff021916908373ffffffffffffffffffffffffffffffffffffffff1602179055508173ffffffffffffffffffffffffffffffffffffffff168173ffffffffffffffffffffffffffffffffffffffff167f8be0079c531659141344cd1fd0a4f28419497f9722a3daafe3b4186f6b6457e060405160405180910390a35050565b6000808273ffffffffffffffffffffffffffffffffffffffff163b119050919050565b600060019054906101000a900460ff1661105a576040517f08c379a000000000000000000000000000000000000000000000000000000000815260040161105190611f72565b60405180910390fd5b81603690816110699190612134565b5080603790816110799190612134565b505050565b600060019054906101000a900460ff166110cd576040517f08c379a00000000000000000000000000000000000000000000000000000000081526004016110c490611f72565b60405180910390fd5b6110dd6110d86109ce565b610f22565b565b600073ffffffffffffffffffffffffffffffffffffffff168273ffffffffffffffffffffffffffffffffffffffff160361114e576040517f08c379a000000000000000000000000000000000000000000000000000000000815260040161114590612252565b60405180910390fd5b61115a60008383611236565b806035600082825461116c9190611904565b9250508190555080603360008473ffffffffffffffffffffffffffffffffffffffff1673ffffffffffffffffffffffffffffffffffffffff168152602001908152602001600020600082825401925050819055508173ffffffffffffffffffffffffffffffffffffffff16600073ffffffffffffffffffffffffffffffffffffffff167fddf252ad1be2c89b69c2b068fc378daa952ba7f163c4a11628f55a4df523b3ef8360405161121e919061144c565b60405180910390a36112326000838361123b565b5050565b505050565b505050565b600081519050919050565b600082825260208201905092915050565b60005b8381101561127a57808201518184015260208101905061125f565b60008484015250505050565b6000601f19601f8301169050919050565b60006112a282611240565b6112ac818561124b565b93506112bc81856020860161125c565b6112c581611286565b840191505092915050565b600060208201905081810360008301526112ea8184611297565b905092915050565b6000604051905090565b600080fd5b600080fd5b600073ffffffffffffffffffffffffffffffffffffffff82169050919050565b600061133182611306565b9050919050565b61134181611326565b811461134c57600080fd5b50565b60008135905061135e81611338565b92915050565b6000819050919050565b61137781611364565b811461138257600080fd5b50565b6000813590506113948161136e565b92915050565b600080604083850312156113b1576113b06112fc565b5b60006113bf8582860161134f565b92505060206113d085828601611385565b9150509250929050565b60008115159050919050565b6113ef816113da565b82525050565b600060208201905061140a60008301846113e6565b92915050565b600060208284031215611426576114256112fc565b5b600061143484828501611385565b91505092915050565b61144681611364565b82525050565b6000602082019050611461600083018461143d565b92915050565b6000806000606084860312156114805761147f6112fc565b5b600061148e8682870161134f565b935050602061149f8682870161134f565b92505060406114b086828701611385565b9150509250925092565b600060ff82169050919050565b6114d0816114ba565b82525050565b60006020820190506114eb60008301846114c7565b92915050565b600060208284031215611507576115066112fc565b5b60006115158482850161134f565b91505092915050565b61152781611326565b82525050565b6000602082019050611542600083018461151e565b92915050565b600080fd5b600080fd5b7f4e487b7100000000000000000000000000000000000000000000000000000000600052604160045260246000fd5b61158a82611286565b810181811067ffffffffffffffff821117156115a9576115a8611552565b5b80604052505050565b60006115bc6112f2565b90506115c88282611581565b919050565b600067ffffffffffffffff8211156115e8576115e7611552565b5b6115f182611286565b9050602081019050919050565b82818337600083830152505050565b600061162061161b846115cd565b6115b2565b90508281526020810184848401111561163c5761163b61154d565b5b6116478482856115fe565b509392505050565b600082601f83011261166457611663611548565b5b813561167484826020860161160d565b91505092915050565b600080600060608486031215611696576116956112fc565b5b600084013567ffffffffffffffff8111156116b4576116b3611301565b5b6116c08682870161164f565b935050602084013567ffffffffffffffff8111156116e1576116e0611301565b5b6116ed8682870161164f565b92505060406116fe86828701611385565b9150509250925092565b6000806040838503121561171f5761171e6112fc565b5b600061172d8582860161134f565b925050602061173e8582860161134f565b9150509250929050565b611751816114ba565b811461175c57600080fd5b50565b60008135905061176e81611748565b92915050565b60006020828403121561178a576117896112fc565b5b60006117988482850161175f565b91505092915050565b7f4e487b7100000000000000000000000000000000000000000000000000000000600052602260045260246000fd5b600060028204905060018216806117e857607f821691505b6020821081036117fb576117fa6117a1565b5b50919050565b7f4e487b7100000000000000000000000000000000000000000000000000000000600052601160045260246000fd5b600061183b82611364565b915061184683611364565b925082820261185481611364565b9150828204841483151761186b5761186a611801565b5b5092915050565b7f6d617820737570706c79206c657373207468656e20746f74616c20737570706c60008201527f7900000000000000000000000000000000000000000000000000000000000000602082015250565b60006118ce60218361124b565b91506118d982611872565b604082019050919050565b600060208201905081810360008301526118fd816118c1565b9050919050565b600061190f82611364565b915061191a83611364565b925082820190508082111561193257611931611801565b5b92915050565b7f45524332303a2064656372656173656420616c6c6f77616e63652062656c6f7760008201527f207a65726f000000000000000000000000000000000000000000000000000000602082015250565b600061199460258361124b565b915061199f82611938565b604082019050919050565b600060208201905081810360008301526119c381611987565b9050919050565b7f496e697469616c697a61626c653a20636f6e747261637420697320616c72656160008201527f647920696e697469616c697a6564000000000000000000000000000000000000602082015250565b6000611a26602e8361124b565b9150611a31826119ca565b604082019050919050565b60006020820190508181036000830152611a5581611a19565b9050919050565b6000819050919050565b6000819050919050565b6000611a8b611a86611a8184611a5c565b611a66565b6114ba565b9050919050565b611a9b81611a70565b82525050565b6000602082019050611ab66000830184611a92565b92915050565b7f4f776e61626c653a206e6577206f776e657220697320746865207a65726f206160008201527f6464726573730000000000000000000000000000000000000000000000000000602082015250565b6000611b1860268361124b565b9150611b2382611abc565b604082019050919050565b60006020820190508181036000830152611b4781611b0b565b9050919050565b7f45524332303a20617070726f76652066726f6d20746865207a65726f2061646460008201527f7265737300000000000000000000000000000000000000000000000000000000602082015250565b6000611baa60248361124b565b9150611bb582611b4e565b604082019050919050565b60006020820190508181036000830152611bd981611b9d565b9050919050565b7f45524332303a20617070726f766520746f20746865207a65726f20616464726560008201527f7373000000000000000000000000000000000000000000000000000000000000602082015250565b6000611c3c60228361124b565b9150611c4782611be0565b604082019050919050565b60006020820190508181036000830152611c6b81611c2f565b9050919050565b7f4f776e61626c653a2063616c6c6572206973206e6f7420746865206f776e6572600082015250565b6000611ca860208361124b565b9150611cb382611c72565b602082019050919050565b60006020820190508181036000830152611cd781611c9b565b9050919050565b7f45524332303a20696e73756666696369656e7420616c6c6f77616e6365000000600082015250565b6000611d14601d8361124b565b9150611d1f82611cde565b602082019050919050565b60006020820190508181036000830152611d4381611d07565b9050919050565b7f45524332303a207472616e736665722066726f6d20746865207a65726f20616460008201527f6472657373000000000000000000000000000000000000000000000000000000602082015250565b6000611da660258361124b565b9150611db182611d4a565b604082019050919050565b60006020820190508181036000830152611dd581611d99565b9050919050565b7f45524332303a207472616e7366657220746f20746865207a65726f206164647260008201527f6573730000000000000000000000000000000000000000000000000000000000602082015250565b6000611e3860238361124b565b9150611e4382611ddc565b604082019050919050565b60006020820190508181036000830152611e6781611e2b565b9050919050565b7f45524332303a207472616e7366657220616d6f756e742065786365656473206260008201527f616c616e63650000000000000000000000000000000000000000000000000000602082015250565b6000611eca60268361124b565b9150611ed582611e6e565b604082019050919050565b60006020820190508181036000830152611ef981611ebd565b9050919050565b7f496e697469616c697a61626c653a20636f6e7472616374206973206e6f74206960008201527f6e697469616c697a696e67000000000000000000000000000000000000000000602082015250565b6000611f5c602b8361124b565b9150611f6782611f00565b604082019050919050565b60006020820190508181036000830152611f8b81611f4f565b9050919050565b60008190508160005260206000209050919050565b60006020601f8301049050919050565b600082821b905092915050565b600060088302611ff47fffffffffffffffffffffffffffffffffffffffffffffffffffffffffffffffff82611fb7565b611ffe8683611fb7565b95508019841693508086168417925050509392505050565b600061203161202c61202784611364565b611a66565b611364565b9050919050565b6000819050919050565b61204b83612016565b61205f61205782612038565b848454611fc4565b825550505050565b600090565b612074612067565b61207f818484612042565b505050565b5b818110156120a35761209860008261206c565b600181019050612085565b5050565b601f8211156120e8576120b981611f92565b6120c284611fa7565b810160208510156120d1578190505b6120e56120dd85611fa7565b830182612084565b50505b505050565b600082821c905092915050565b600061210b600019846008026120ed565b1980831691505092915050565b600061212483836120fa565b9150826002028217905092915050565b61213d82611240565b67ffffffffffffffff81111561215657612155611552565b5b61216082546117d0565b61216b8282856120a7565b600060209050601f83116001811461219e576000841561218c578287015190505b6121968582612118565b8655506121fe565b601f1984166121ac86611f92565b60005b828110156121d4578489015182556001820191506020850194506020810190506121af565b868310156121f157848901516121ed601f8916826120fa565b8355505b6001600288020188555050505b505050505050565b7f45524332303a206d696e7420746f20746865207a65726f206164647265737300600082015250565b600061223c601f8361124b565b915061224782612206565b602082019050919050565b6000602082019050818103600083015261226b8161222f565b905091905056fea26469706673582212206dd9a6dcd03b1d6a8f611f993f29dacceeb09cab17287e710945c4d05d1d4f1464736f6c63430008110033",
  "immutableReferences": {},
  "source": "// SPDX-License-Identifier: MIT\r\npragma solidity 0.8.17;\r\n\r\n// import \"@openzeppelin/contracts/token/ERC20/ERC20.sol\";\r\nimport \"@openzeppelin/contracts-upgradeable/token/ERC20/ERC20Upgradeable.sol\";\r\n// import \"@openzeppelin/contracts/access/Ownable.sol\";\r\nimport \"@openzeppelin/contracts-upgradeable/access/OwnableUpgradeable.sol\";\r\nimport \"./Token2Storage.sol\";\r\n\r\ncontract Token2 is ERC20Upgradeable, OwnableUpgradeable, Token2Storage {\r\n\r\n    function initialize(string memory _tokenName,\r\n    string memory _tokenSymbol,\r\n    uint256 _supply) public initializer() {\r\n        __ERC20_init_unchained(_tokenName, _tokenSymbol);\r\n        __Ownable_init_unchained();\r\n\r\n        _mint(msg.sender, _supply*(1e18));\r\n    }\r\n\r\n    function setMuxSupply(uint256 _max) external onlyOwner {\r\n        require(_max*1e18 >= totalSupply(), \"max supply less then total supply\");\r\n        maxSupply = _max*1e18;\r\n    }\r\n\r\n    function setVersion(uint8 _ver) external {\r\n        VERSION = _ver;\r\n    }\r\n}\r\n",
  "sourcePath": "C:\\Users\\iorim\\VSCprojects\\MasterZ_DEV_Blockchain_Homeworks\\TokenUpgradeable\\contracts\\Token2.sol",
  "compiler": {
    "name": "solc",
    "version": "0.8.17+commit.8df45f5f.Emscripten.clang"
  },
  "schemaVersion": "3.4.16",
  "updatedAt": "2024-08-19T15:34:18.100Z",
  "networkType": "ethereum",
  "devdoc": {
    "kind": "dev",
    "methods": {
      "allowance(address,address)": {
        "details": "See {IERC20-allowance}."
      },
      "approve(address,uint256)": {
        "details": "See {IERC20-approve}. NOTE: If `amount` is the maximum `uint256`, the allowance is not updated on `transferFrom`. This is semantically equivalent to an infinite approval. Requirements: - `spender` cannot be the zero address."
      },
      "balanceOf(address)": {
        "details": "See {IERC20-balanceOf}."
      },
      "decimals()": {
        "details": "Returns the number of decimals used to get its user representation. For example, if `decimals` equals `2`, a balance of `505` tokens should be displayed to a user as `5.05` (`505 / 10 ** 2`). Tokens usually opt for a value of 18, imitating the relationship between Ether and Wei. This is the default value returned by this function, unless it's overridden. NOTE: This information is only used for _display_ purposes: it in no way affects any of the arithmetic of the contract, including {IERC20-balanceOf} and {IERC20-transfer}."
      },
      "decreaseAllowance(address,uint256)": {
        "details": "Atomically decreases the allowance granted to `spender` by the caller. This is an alternative to {approve} that can be used as a mitigation for problems described in {IERC20-approve}. Emits an {Approval} event indicating the updated allowance. Requirements: - `spender` cannot be the zero address. - `spender` must have allowance for the caller of at least `subtractedValue`."
      },
      "increaseAllowance(address,uint256)": {
        "details": "Atomically increases the allowance granted to `spender` by the caller. This is an alternative to {approve} that can be used as a mitigation for problems described in {IERC20-approve}. Emits an {Approval} event indicating the updated allowance. Requirements: - `spender` cannot be the zero address."
      },
      "name()": {
        "details": "Returns the name of the token."
      },
      "owner()": {
        "details": "Returns the address of the current owner."
      },
      "renounceOwnership()": {
        "details": "Leaves the contract without owner. It will not be possible to call `onlyOwner` functions. Can only be called by the current owner. NOTE: Renouncing ownership will leave the contract without an owner, thereby disabling any functionality that is only available to the owner."
      },
      "symbol()": {
        "details": "Returns the symbol of the token, usually a shorter version of the name."
      },
      "totalSupply()": {
        "details": "See {IERC20-totalSupply}."
      },
      "transfer(address,uint256)": {
        "details": "See {IERC20-transfer}. Requirements: - `to` cannot be the zero address. - the caller must have a balance of at least `amount`."
      },
      "transferFrom(address,address,uint256)": {
        "details": "See {IERC20-transferFrom}. Emits an {Approval} event indicating the updated allowance. This is not required by the EIP. See the note at the beginning of {ERC20}. NOTE: Does not update the allowance if the current allowance is the maximum `uint256`. Requirements: - `from` and `to` cannot be the zero address. - `from` must have a balance of at least `amount`. - the caller must have allowance for ``from``'s tokens of at least `amount`."
      },
      "transferOwnership(address)": {
        "details": "Transfers ownership of the contract to a new account (`newOwner`). Can only be called by the current owner."
      }
    },
    "version": 1
  },
  "userdoc": {
    "kind": "user",
    "methods": {},
    "version": 1
  }
}